{
  "contractName": "goods",
  "abi": [
    {
      "inputs": [
        {
          "internalType": "string",
          "name": "goodsId",
          "type": "string"
        },
        {
          "internalType": "string",
          "name": "name",
          "type": "string"
        },
        {
          "internalType": "string",
          "name": "goodsType",
          "type": "string"
        },
        {
          "internalType": "string",
          "name": "fnote",
          "type": "string"
        },
        {
          "internalType": "string",
          "name": "flocation",
          "type": "string"
        },
        {
          "internalType": "string",
          "name": "fprincipal",
          "type": "string"
        },
        {
          "internalType": "string",
          "name": "fQualityState",
          "type": "string"
        }
      ],
      "name": "setFarm",
      "outputs": [],
      "stateMutability": "nonpayable",
      "type": "function"
    },
    {
      "inputs": [
        {
          "internalType": "uint256",
          "name": "num",
          "type": "uint256"
        },
        {
          "internalType": "uint256",
          "name": "processNum",
          "type": "uint256"
        },
        {
          "internalType": "string",
          "name": "processContent",
          "type": "string"
        },
        {
          "internalType": "string",
          "name": "plocation",
          "type": "string"
        },
        {
          "internalType": "string",
          "name": "pprincipal",
          "type": "string"
        },
        {
          "internalType": "string",
          "name": "pnote",
          "type": "string"
        },
        {
          "internalType": "string",
          "name": "pQualityState",
          "type": "string"
        }
      ],
      "name": "setProcess",
      "outputs": [],
      "stateMutability": "nonpayable",
      "type": "function"
    },
    {
      "inputs": [
        {
          "internalType": "uint256",
          "name": "num",
          "type": "uint256"
        },
        {
          "internalType": "uint256",
          "name": "transportNum",
          "type": "uint256"
        },
        {
          "internalType": "string",
          "name": "transportWay",
          "type": "string"
        },
        {
          "internalType": "string",
          "name": "tlocation",
          "type": "string"
        },
        {
          "internalType": "string",
          "name": "tprincipal",
          "type": "string"
        },
        {
          "internalType": "string",
          "name": "tnote",
          "type": "string"
        }
      ],
      "name": "setTransport",
      "outputs": [],
      "stateMutability": "nonpayable",
      "type": "function"
    },
    {
      "inputs": [
        {
          "internalType": "uint256",
          "name": "num",
          "type": "uint256"
        },
        {
          "internalType": "string",
          "name": "price",
          "type": "string"
        },
        {
          "internalType": "string",
          "name": "slocation",
          "type": "string"
        },
        {
          "internalType": "string",
          "name": "sprincipal",
          "type": "string"
        },
        {
          "internalType": "string",
          "name": "snote",
          "type": "string"
        },
        {
          "internalType": "string",
          "name": "sQualityState",
          "type": "string"
        }
      ],
      "name": "setSale",
      "outputs": [],
      "stateMutability": "nonpayable",
      "type": "function"
    },
    {
      "inputs": [
        {
          "internalType": "uint256",
          "name": "num",
          "type": "uint256"
        }
      ],
      "name": "setProduct",
      "outputs": [],
      "stateMutability": "nonpayable",
      "type": "function"
    },
    {
      "inputs": [],
      "name": "getnum",
      "outputs": [
        {
          "internalType": "uint256",
          "name": "",
          "type": "uint256"
        }
      ],
      "stateMutability": "view",
      "type": "function",
      "constant": true
    },
    {
      "inputs": [
        {
          "internalType": "uint256",
          "name": "num",
          "type": "uint256"
        }
      ],
      "name": "getbnum",
      "outputs": [
        {
          "internalType": "uint256",
          "name": "",
          "type": "uint256"
        }
      ],
      "stateMutability": "view",
      "type": "function",
      "constant": true
    },
    {
      "inputs": [
        {
          "internalType": "uint256",
          "name": "bnum",
          "type": "uint256"
        },
        {
          "internalType": "uint256",
          "name": "num",
          "type": "uint256"
        }
      ],
      "name": "getProductName",
      "outputs": [
        {
          "internalType": "string",
          "name": "",
          "type": "string"
        }
      ],
      "stateMutability": "view",
      "type": "function",
      "constant": true
    },
    {
      "inputs": [
        {
          "internalType": "uint256",
          "name": "bnum",
          "type": "uint256"
        },
        {
          "internalType": "uint256",
          "name": "num",
          "type": "uint256"
        }
      ],
      "name": "getProductGoodsType",
      "outputs": [
        {
          "internalType": "string",
          "name": "",
          "type": "string"
        }
      ],
      "stateMutability": "view",
      "type": "function",
      "constant": true
    },
    {
      "inputs": [
        {
          "internalType": "uint256",
          "name": "bnum",
          "type": "uint256"
        },
        {
          "internalType": "uint256",
          "name": "num",
          "type": "uint256"
        }
      ],
      "name": "getProductProcessNum",
      "outputs": [
        {
          "internalType": "uint256",
          "name": "",
          "type": "uint256"
        }
      ],
      "stateMutability": "view",
      "type": "function",
      "constant": true
    },
    {
      "inputs": [
        {
          "internalType": "uint256",
          "name": "bnum",
          "type": "uint256"
        },
        {
          "internalType": "uint256",
          "name": "num",
          "type": "uint256"
        }
      ],
      "name": "getProductProcessContent",
      "outputs": [
        {
          "internalType": "string",
          "name": "",
          "type": "string"
        }
      ],
      "stateMutability": "view",
      "type": "function",
      "constant": true
    },
    {
      "inputs": [
        {
          "internalType": "uint256",
          "name": "bnum",
          "type": "uint256"
        },
        {
          "internalType": "uint256",
          "name": "num",
          "type": "uint256"
        }
      ],
      "name": "getProductTransportNum",
      "outputs": [
        {
          "internalType": "uint256",
          "name": "",
          "type": "uint256"
        }
      ],
      "stateMutability": "view",
      "type": "function",
      "constant": true
    },
    {
      "inputs": [
        {
          "internalType": "uint256",
          "name": "bnum",
          "type": "uint256"
        },
        {
          "internalType": "uint256",
          "name": "num",
          "type": "uint256"
        }
      ],
      "name": "getProductTransportWay",
      "outputs": [
        {
          "internalType": "string",
          "name": "",
          "type": "string"
        }
      ],
      "stateMutability": "view",
      "type": "function",
      "constant": true
    },
    {
      "inputs": [
        {
          "internalType": "uint256",
          "name": "bnum",
          "type": "uint256"
        },
        {
          "internalType": "uint256",
          "name": "num",
          "type": "uint256"
        }
      ],
      "name": "getProductPrice",
      "outputs": [
        {
          "internalType": "string",
          "name": "",
          "type": "string"
        }
      ],
      "stateMutability": "view",
      "type": "function",
      "constant": true
    },
    {
      "inputs": [
        {
          "internalType": "uint256",
          "name": "bnum",
          "type": "uint256"
        },
        {
          "internalType": "uint256",
          "name": "num",
          "type": "uint256"
        }
      ],
      "name": "getProductNote",
      "outputs": [
        {
          "internalType": "string",
          "name": "",
          "type": "string"
        }
      ],
      "stateMutability": "view",
      "type": "function",
      "constant": true
    },
    {
      "inputs": [
        {
          "internalType": "uint256",
          "name": "bnum",
          "type": "uint256"
        },
        {
          "internalType": "uint256",
          "name": "num",
          "type": "uint256"
        }
      ],
      "name": "getProductLocation",
      "outputs": [
        {
          "internalType": "string",
          "name": "",
          "type": "string"
        }
      ],
      "stateMutability": "view",
      "type": "function",
      "constant": true
    },
    {
      "inputs": [
        {
          "internalType": "uint256",
          "name": "bnum",
          "type": "uint256"
        },
        {
          "internalType": "uint256",
          "name": "num",
          "type": "uint256"
        }
      ],
      "name": "getProductUserType",
      "outputs": [
        {
          "internalType": "uint256",
          "name": "",
          "type": "uint256"
        }
      ],
      "stateMutability": "view",
      "type": "function",
      "constant": true
    },
    {
      "inputs": [
        {
          "internalType": "uint256",
          "name": "bnum",
          "type": "uint256"
        },
        {
          "internalType": "uint256",
          "name": "num",
          "type": "uint256"
        }
      ],
      "name": "getProductPrincipal",
      "outputs": [
        {
          "internalType": "string",
          "name": "",
          "type": "string"
        }
      ],
      "stateMutability": "view",
      "type": "function",
      "constant": true
    },
    {
      "inputs": [
        {
          "internalType": "uint256",
          "name": "bnum",
          "type": "uint256"
        },
        {
          "internalType": "uint256",
          "name": "num",
          "type": "uint256"
        }
      ],
      "name": "getProductQualityState",
      "outputs": [
        {
          "internalType": "string",
          "name": "",
          "type": "string"
        }
      ],
      "stateMutability": "view",
      "type": "function",
      "constant": true
    },
    {
      "inputs": [
        {
          "internalType": "uint256",
          "name": "bnum",
          "type": "uint256"
        },
        {
          "internalType": "uint256",
          "name": "num",
          "type": "uint256"
        }
      ],
      "name": "getProductChangeTime",
      "outputs": [
        {
          "internalType": "uint256",
          "name": "",
          "type": "uint256"
        }
      ],
      "stateMutability": "view",
      "type": "function",
      "constant": true
    }
  ],
  "bytecode": "0x608060405234801561001057600080fd5b50611da5806100206000396000f3fe608060405234801561001057600080fd5b506004361061012c5760003560e01c806363bb0df5116100ad57806381e650771161007157806381e650771461039f578063ba93ff2c146103bb578063bebee750146103eb578063f059a5441461041b578063f9bed89c1461044b5761012c565b806363bb0df5146102d55780636a89248a146103055780636fd1bdea1461033557806372d05f42146103515780637d368873146103815761012c565b806339ff728f116100f457806339ff728f1461020d5780633b728c5614610229578063513f32b8146102595780635e83fc5a146102755780635f98ea08146102a55761012c565b806305ed59f214610131578063105395cc1461016157806319c7d20914610191578063221b5394146101c15780632b508243146101dd575b600080fd5b61014b600480360381019061014691906114a5565b61047b565b604051610158919061157e565b60405180910390f35b61017b600480360381019061017691906114a5565b610535565b604051610188919061157e565b60405180910390f35b6101ab60048036038101906101a691906114a5565b6105ef565b6040516101b891906115af565b60405180910390f35b6101db60048036038101906101d691906116ff565b610621565b005b6101f760048036038101906101f291906114a5565b6106b8565b60405161020491906115af565b60405180910390f35b61022760048036038101906102229190611818565b6106ea565b005b610243600480360381019061023e91906114a5565b61080f565b604051610250919061157e565b60405180910390f35b610273600480360381019061026e919061197e565b6108c9565b005b61028f600480360381019061028a91906114a5565b610963565b60405161029c919061157e565b60405180910390f35b6102bf60048036038101906102ba91906114a5565b610a1d565b6040516102cc91906115af565b60405180910390f35b6102ef60048036038101906102ea91906114a5565b610a4f565b6040516102fc919061157e565b60405180910390f35b61031f600480360381019061031a91906114a5565b610b09565b60405161032c919061157e565b60405180910390f35b61034f600480360381019061034a9190611a7b565b610bc3565b005b61036b600480360381019061036691906114a5565b610ff2565b604051610378919061157e565b60405180910390f35b6103896110ac565b60405161039691906115af565b60405180910390f35b6103b960048036038101906103b49190611aa8565b6110b5565b005b6103d560048036038101906103d09190611a7b565b611168565b6040516103e291906115af565b60405180910390f35b610405600480360381019061040091906114a5565b611185565b604051610412919061157e565b60405180910390f35b610435600480360381019061043091906114a5565b61123f565b60405161044291906115af565b60405180910390f35b610465600480360381019061046091906114a5565b611271565b604051610472919061157e565b60405180910390f35b6060600b6000848152602001908152602001600020600083815260200190815260200160002060010180546104af90611c05565b80601f01602080910402602001604051908101604052809291908181526020018280546104db90611c05565b80156105285780601f106104fd57610100808354040283529160200191610528565b820191906000526020600020905b81548152906001019060200180831161050b57829003601f168201915b5050505050905092915050565b6060600b60008481526020019081526020016000206000838152602001908152602001600020600901805461056990611c05565b80601f016020809104026020016040519081016040528092919081815260200182805461059590611c05565b80156105e25780601f106105b7576101008083540402835291602001916105e2565b820191906000526020600020905b8154815290600101906020018083116105c557829003601f168201915b5050505050905092915050565b6000600b60008481526020019081526020016000206000838152602001908152602001600020600a0154905092915050565b84600a6000888152602001908152602001600020600101908051906020019061064b92919061132b565b50836001908051906020019061066292919061132b565b50826005908051906020019061067992919061132b565b50816006908051906020019061069092919061132b565b50600460038190555080600490805190602001906106af92919061132b565b50505050505050565b6000600b6000848152602001908152602001600020600083815260200190815260200160002060050154905092915050565b64174876e8008787604051602001610703929190611c73565b6040516020818303038152906040528051906020012060001c6107269190611cc6565b600081905550600054600760008054815260200190815260200160002060010181905550856007600080548152602001908152602001600020600201908051906020019061077592919061132b565b5084600760008054815260200190815260200160002060030190805190602001906107a192919061132b565b5083600690805190602001906107b892919061132b565b5082600190805190602001906107cf92919061132b565b50600160038190555081600590805190602001906107ee92919061132b565b50806004908051906020019061080592919061132b565b5050505050505050565b6060600b60008481526020019081526020016000206000838152602001908152602001600020600401805461084390611c05565b80601f016020809104026020016040519081016040528092919081815260200182805461086f90611c05565b80156108bc5780601f10610891576101008083540402835291602001916108bc565b820191906000526020600020905b81548152906001019060200180831161089f57829003601f168201915b5050505050905092915050565b8460086000888152602001908152602001600020600101819055508360086000888152602001908152602001600020600201908051906020019061090e92919061132b565b50826001908051906020019061092592919061132b565b50816005908051906020019061093c92919061132b565b50806006908051906020019061095392919061132b565b5060038081905550505050505050565b6060600b60008481526020019081526020016000206000838152602001908152602001600020600c01805461099790611c05565b80601f01602080910402602001604051908101604052809291908181526020018280546109c390611c05565b8015610a105780601f106109e557610100808354040283529160200191610a10565b820191906000526020600020905b8154815290600101906020018083116109f357829003601f168201915b5050505050905092915050565b6000600b60008481526020019081526020016000206000838152602001908152602001600020600d0154905092915050565b6060600b600084815260200190815260200160002060008381526020019081526020016000206007018054610a8390611c05565b80601f0160208091040260200160405190810160405280929190818152602001828054610aaf90611c05565b8015610afc5780601f10610ad157610100808354040283529160200191610afc565b820191906000526020600020905b815481529060010190602001808311610adf57829003601f168201915b5050505050905092915050565b6060600b60008481526020019081526020016000206000838152602001908152602001600020600b018054610b3d90611c05565b80601f0160208091040260200160405190810160405280929190818152602001828054610b6990611c05565b8015610bb65780601f10610b8b57610100808354040283529160200191610bb6565b820191906000526020600020905b815481529060010190602001808311610b9957829003601f168201915b5050505050905092915050565b600c60008281526020019081526020016000206000815480929190610be790611d26565b9190505550600c6000828152602001908152602001600020546002819055506007600082815260200190815260200160002060010154600b6000600254815260200190815260200160002060008381526020019081526020016000206000018190555060076000828152602001908152602001600020600201600b600060025481526020019081526020016000206000838152602001908152602001600020600101908054610c9590611c05565b610ca09291906113b1565b5060076000828152602001908152602001600020600301600b600060025481526020019081526020016000206000838152602001908152602001600020600201908054610cec90611c05565b610cf79291906113b1565b506009600082815260200190815260200160002060010154600b6000600254815260200190815260200160002060008381526020019081526020016000206003018190555060096000828152602001908152602001600020600201600b600060025481526020019081526020016000206000838152602001908152602001600020600401908054610d8790611c05565b610d929291906113b1565b506008600082815260200190815260200160002060010154600b6000600254815260200190815260200160002060008381526020019081526020016000206005018190555060086000828152602001908152602001600020600201600b600060025481526020019081526020016000206000838152602001908152602001600020600601908054610e2290611c05565b610e2d9291906113b1565b50600a6000828152602001908152602001600020600101600b600060025481526020019081526020016000206000838152602001908152602001600020600701908054610e7990611c05565b610e849291906113b1565b506006600b600060025481526020019081526020016000206000838152602001908152602001600020600801908054610ebc90611c05565b610ec79291906113b1565b506001600b600060025481526020019081526020016000206000838152602001908152602001600020600901908054610eff90611c05565b610f0a9291906113b1565b50600354600b600060025481526020019081526020016000206000838152602001908152602001600020600a01819055506005600b600060025481526020019081526020016000206000838152602001908152602001600020600b01908054610f7290611c05565b610f7d9291906113b1565b506004600b600060025481526020019081526020016000206000838152602001908152602001600020600c01908054610fb590611c05565b610fc09291906113b1565b5042600b600060025481526020019081526020016000206000838152602001908152602001600020600d018190555050565b6060600b60008481526020019081526020016000206000838152602001908152602001600020600801805461102690611c05565b80601f016020809104026020016040519081016040528092919081815260200182805461105290611c05565b801561109f5780601f106110745761010080835404028352916020019161109f565b820191906000526020600020905b81548152906001019060200180831161108257829003601f168201915b5050505050905092915050565b60008054905090565b856009600089815260200190815260200160002060010181905550846009600089815260200190815260200160002060020190805190602001906110fa92919061132b565b50826005908051906020019061111192919061132b565b50816006908051906020019061112892919061132b565b506002600381905550836001908051906020019061114792919061132b565b50806004908051906020019061115e92919061132b565b5050505050505050565b6000600c6000838152602001908152602001600020549050919050565b6060600b6000848152602001908152602001600020600083815260200190815260200160002060060180546111b990611c05565b80601f01602080910402602001604051908101604052809291908181526020018280546111e590611c05565b80156112325780601f1061120757610100808354040283529160200191611232565b820191906000526020600020905b81548152906001019060200180831161121557829003601f168201915b5050505050905092915050565b6000600b6000848152602001908152602001600020600083815260200190815260200160002060030154905092915050565b6060600b6000848152602001908152602001600020600083815260200190815260200160002060020180546112a590611c05565b80601f01602080910402602001604051908101604052809291908181526020018280546112d190611c05565b801561131e5780601f106112f35761010080835404028352916020019161131e565b820191906000526020600020905b81548152906001019060200180831161130157829003601f168201915b5050505050905092915050565b82805461133790611c05565b90600052602060002090601f01602090048101928261135957600085556113a0565b82601f1061137257805160ff19168380011785556113a0565b828001600101855582156113a0579182015b8281111561139f578251825591602001919060010190611384565b5b5090506113ad919061143e565b5090565b8280546113bd90611c05565b90600052602060002090601f0160209004810192826113df576000855561142d565b82601f106113f0578054855561142d565b8280016001018555821561142d57600052602060002091601f016020900482015b8281111561142c578254825591600101919060010190611411565b5b50905061143a919061143e565b5090565b5b8082111561145757600081600090555060010161143f565b5090565b6000604051905090565b600080fd5b600080fd5b6000819050919050565b6114828161146f565b811461148d57600080fd5b50565b60008135905061149f81611479565b92915050565b600080604083850312156114bc576114bb611465565b5b60006114ca85828601611490565b92505060206114db85828601611490565b9150509250929050565b600081519050919050565b600082825260208201905092915050565b60005b8381101561151f578082015181840152602081019050611504565b8381111561152e576000848401525b50505050565b6000601f19601f8301169050919050565b6000611550826114e5565b61155a81856114f0565b935061156a818560208601611501565b61157381611534565b840191505092915050565b600060208201905081810360008301526115988184611545565b905092915050565b6115a98161146f565b82525050565b60006020820190506115c460008301846115a0565b92915050565b600080fd5b600080fd5b7f4e487b7100000000000000000000000000000000000000000000000000000000600052604160045260246000fd5b61160c82611534565b810181811067ffffffffffffffff8211171561162b5761162a6115d4565b5b80604052505050565b600061163e61145b565b905061164a8282611603565b919050565b600067ffffffffffffffff82111561166a576116696115d4565b5b61167382611534565b9050602081019050919050565b82818337600083830152505050565b60006116a261169d8461164f565b611634565b9050828152602081018484840111156116be576116bd6115cf565b5b6116c9848285611680565b509392505050565b600082601f8301126116e6576116e56115ca565b5b81356116f684826020860161168f565b91505092915050565b60008060008060008060c0878903121561171c5761171b611465565b5b600061172a89828a01611490565b965050602087013567ffffffffffffffff81111561174b5761174a61146a565b5b61175789828a016116d1565b955050604087013567ffffffffffffffff8111156117785761177761146a565b5b61178489828a016116d1565b945050606087013567ffffffffffffffff8111156117a5576117a461146a565b5b6117b189828a016116d1565b935050608087013567ffffffffffffffff8111156117d2576117d161146a565b5b6117de89828a016116d1565b92505060a087013567ffffffffffffffff8111156117ff576117fe61146a565b5b61180b89828a016116d1565b9150509295509295509295565b600080600080600080600060e0888a03121561183757611836611465565b5b600088013567ffffffffffffffff8111156118555761185461146a565b5b6118618a828b016116d1565b975050602088013567ffffffffffffffff8111156118825761188161146a565b5b61188e8a828b016116d1565b965050604088013567ffffffffffffffff8111156118af576118ae61146a565b5b6118bb8a828b016116d1565b955050606088013567ffffffffffffffff8111156118dc576118db61146a565b5b6118e88a828b016116d1565b945050608088013567ffffffffffffffff8111156119095761190861146a565b5b6119158a828b016116d1565b93505060a088013567ffffffffffffffff8111156119365761193561146a565b5b6119428a828b016116d1565b92505060c088013567ffffffffffffffff8111156119635761196261146a565b5b61196f8a828b016116d1565b91505092959891949750929550565b60008060008060008060c0878903121561199b5761199a611465565b5b60006119a989828a01611490565b96505060206119ba89828a01611490565b955050604087013567ffffffffffffffff8111156119db576119da61146a565b5b6119e789828a016116d1565b945050606087013567ffffffffffffffff811115611a0857611a0761146a565b5b611a1489828a016116d1565b935050608087013567ffffffffffffffff811115611a3557611a3461146a565b5b611a4189828a016116d1565b92505060a087013567ffffffffffffffff811115611a6257611a6161146a565b5b611a6e89828a016116d1565b9150509295509295509295565b600060208284031215611a9157611a90611465565b5b6000611a9f84828501611490565b91505092915050565b600080600080600080600060e0888a031215611ac757611ac6611465565b5b6000611ad58a828b01611490565b9750506020611ae68a828b01611490565b965050604088013567ffffffffffffffff811115611b0757611b0661146a565b5b611b138a828b016116d1565b955050606088013567ffffffffffffffff811115611b3457611b3361146a565b5b611b408a828b016116d1565b945050608088013567ffffffffffffffff811115611b6157611b6061146a565b5b611b6d8a828b016116d1565b93505060a088013567ffffffffffffffff811115611b8e57611b8d61146a565b5b611b9a8a828b016116d1565b92505060c088013567ffffffffffffffff811115611bbb57611bba61146a565b5b611bc78a828b016116d1565b91505092959891949750929550565b7f4e487b7100000000000000000000000000000000000000000000000000000000600052602260045260246000fd5b60006002820490506001821680611c1d57607f821691505b60208210811415611c3157611c30611bd6565b5b50919050565b600081905092915050565b6000611c4d826114e5565b611c578185611c37565b9350611c67818560208601611501565b80840191505092915050565b6000611c7f8285611c42565b9150611c8b8284611c42565b91508190509392505050565b7f4e487b7100000000000000000000000000000000000000000000000000000000600052601260045260246000fd5b6000611cd18261146f565b9150611cdc8361146f565b925082611cec57611ceb611c97565b5b828206905092915050565b7f4e487b7100000000000000000000000000000000000000000000000000000000600052601160045260246000fd5b6000611d318261146f565b91507fffffffffffffffffffffffffffffffffffffffffffffffffffffffffffffffff821415611d6457611d63611cf7565b5b60018201905091905056fea26469706673582212206cdb502b09347b426b8160aaa98616fad2b77cd09bb0b3ab7d3f5013001e3ef864736f6c634300080b0033",
  "immutableReferences": {},
  "source": "pragma solidity >=0.4.22 <0.9.0;\ncontract goods {\n    uint id;//id\n    string location;//\n    uint blocknum;//\n    uint userType;//\n    string QualityState;//\n    string principal;//\n    string note;//\n\n    struct Farm {//\n        string goodsId;//id\n        uint num;//\n        string name;//\n        string goodsType;//\n    }\n\n    struct Process{//\n        uint num;\n        uint processNum;//\n        string processContent;//\n    }\n\n    struct Transport {//\n        uint num;//\n        uint transportNum;//\n        string transportWay;//\n    }\n\n    struct Sale{//\n        uint num;//\n        string price;//\n    }\n\n    struct Product {//\n        uint num;//\n        string name;//\n        string goodsType;//\n        uint processNum;//\n        string processContent;//\n        uint transportNum;//\n        string transportWay;//\n        string price;//\n        string note;//\n        string location;//\n        uint userType;//\n        string principal;//\n        string QualityState;//\n        uint changeTime;//\n    }\n\n    mapping(uint => Farm) farmMap;\n    mapping(uint => Transport) transportMap;\n    mapping(uint => Process) processMap;\n    mapping(uint => Sale) saleMap;\n    mapping(uint => mapping(uint => Product)) productMap;\n    mapping(uint => uint)blocknumMap;//\n\n    function setFarm(string memory goodsId, string memory name,string memory goodsType,string memory fnote,string memory flocation,string memory fprincipal,string memory fQualityState) public {\n        id = uint(keccak256(abi.encodePacked(goodsId,name)))%100000000000;\n        farmMap[id].num = id;\n        farmMap[id].name = name;\n        farmMap[id].goodsType = goodsType;\n        note = fnote;\n        location = flocation;\n        userType = 1;\n        principal = fprincipal;\n        QualityState = fQualityState;\n    }\n    function setProcess(uint num, uint processNum,string memory processContent, string memory plocation,string memory pprincipal,string memory pnote,string memory pQualityState) public {\n        processMap[num].processNum = processNum;\n        processMap[num].processContent = processContent;\n        principal = pprincipal;\n        note = pnote;\n        userType = 2;\n        location = plocation;\n        QualityState = pQualityState;\n    }\n    function setTransport(uint num, uint transportNum, string memory transportWay,string memory tlocation,string memory tprincipal,string memory tnote) public {\n        transportMap[num].transportNum = transportNum;\n        transportMap[num].transportWay = transportWay;\n        location = tlocation;\n        principal = tprincipal;\n        note = tnote;\n        userType = 3;\n    }\n    function setSale(uint num, string memory price, string memory slocation,string memory sprincipal,string memory snote,string memory sQualityState) public {\n        saleMap[num].price = price;\n        location = slocation;\n        principal = sprincipal;\n        note = snote;\n        userType = 4;\n        QualityState = sQualityState;\n    }\n\n    function setProduct(uint num) public {\n        blocknumMap[num]++;\n        blocknum = blocknumMap[num];\n        productMap[blocknum][num].num = farmMap[num].num;\n        productMap[blocknum][num].name = farmMap[num].name;\n        productMap[blocknum][num].goodsType = farmMap[num].goodsType;\n        productMap[blocknum][num].processNum = processMap[num].processNum;\n        productMap[blocknum][num].processContent = processMap[num].processContent;\n        productMap[blocknum][num].transportNum = transportMap[num].transportNum;\n        productMap[blocknum][num].transportWay = transportMap[num].transportWay;\n        productMap[blocknum][num].price = saleMap[num].price;\n        productMap[blocknum][num].note = note;\n        productMap[blocknum][num].location = location;\n        productMap[blocknum][num].userType = userType;\n        productMap[blocknum][num].principal = principal;\n        productMap[blocknum][num].QualityState = QualityState;\n        productMap[blocknum][num].changeTime = block.timestamp;\n    }\n\n    function getnum() public view returns (uint){\n        return id;\n    }\n    function getbnum(uint num) public view returns(uint){\n        return blocknumMap[num];\n    }\n\n    function getProductName(uint bnum,uint num) public view returns (string memory){\n        return productMap[bnum][num].name;\n    }\n\n    function getProductGoodsType(uint bnum,uint num) public view returns (string memory){\n        return productMap[bnum][num].goodsType;\n    }\n\n    function getProductProcessNum(uint bnum,uint num) public view returns (uint){\n        return productMap[bnum][num].processNum;\n    }\n\n    function getProductProcessContent(uint bnum,uint num) public view returns (string memory){\n        return productMap[bnum][num].processContent;\n    }\n\n    function getProductTransportNum(uint bnum,uint num) public view returns (uint){\n        return productMap[bnum][num].transportNum;\n    }\n\n    function getProductTransportWay(uint bnum,uint num) public view returns (string memory){\n        return productMap[bnum][num].transportWay;\n    }\n\n    function getProductPrice(uint bnum,uint num) public view returns (string memory){\n        return productMap[bnum][num].price;\n    }\n\n    function getProductNote(uint bnum,uint num) public view returns (string memory){\n        return productMap[bnum][num].note;\n    }\n\n    function getProductLocation(uint bnum,uint num) public view returns (string memory){\n        return productMap[bnum][num].location;\n    }\n    function getProductUserType(uint bnum,uint num) public view returns (uint){\n        return productMap[bnum][num].userType;\n    }\n\n    function getProductPrincipal(uint bnum,uint num) public view returns (string memory){\n        return productMap[bnum][num].principal;\n    }\n\n    function getProductQualityState(uint bnum,uint num) public view returns (string memory){\n        return productMap[bnum][num].QualityState;\n    }\n\n    function getProductChangeTime(uint bnum,uint num) public view returns (uint){\n        return productMap[bnum][num].changeTime;\n    }\n\n    // function getProduct(uint bnum,uint num) public view returns (string memory,string memory,uint,string memory,uint,string memory,string memory,string memory,string memory,uint,string memory,string memory,uint){\n\n    //     return (productMap[bnum][num].name,productMap[bnum][num].goodsType,productMap[bnum][num].processNum,productMap[bnum][num].processContent,productMap[bnum][num].transportNum,productMap[bnum][num].transportWay,productMap[bnum][num].price,productMap[bnum][num].note,productMap[bnum][num].location,productMap[bnum][num].userType,productMap[bnum][num].principal,productMap[bnum][num].QualityState,productMap[bnum][num].changeTime);\n    // }\n\n\n\n\n\n}\n",
  "sourcePath": "E:\\blockchainTest\\foodfront\\contracts\\goods.sol",
  "compiler": {
    "name": "solc",
    "version": "0.8.11+commit.d7f03943.Emscripten.clang"
  },
  "schemaVersion": "3.4.4",
  "updatedAt": "2022-05-10T11:32:47.840Z",
  "networkType": "ethereum",
  "devdoc": {
    "kind": "dev",
    "methods": {},
    "version": 1
  },
  "userdoc": {
    "kind": "user",
    "methods": {},
    "version": 1
  }
}